{
  "contractName": "DecentralizedMail",
  "abi": [
    {
      "anonymous": false,
      "inputs": [
        {
          "indexed": true,
          "internalType": "address",
          "name": "user",
          "type": "address"
        },
        {
          "indexed": false,
          "internalType": "uint256",
          "name": "messageId",
          "type": "uint256"
        }
      ],
      "name": "MessageDeleted",
      "type": "event"
    },
    {
      "anonymous": false,
      "inputs": [
        {
          "indexed": true,
          "internalType": "address",
          "name": "sender",
          "type": "address"
        },
        {
          "indexed": true,
          "internalType": "address",
          "name": "receiver",
          "type": "address"
        },
        {
          "indexed": false,
          "internalType": "uint256",
          "name": "messageId",
          "type": "uint256"
        }
      ],
      "name": "MessageSent",
      "type": "event"
    },
    {
      "inputs": [
        {
          "internalType": "uint256",
          "name": "",
          "type": "uint256"
        }
      ],
      "name": "messages",
      "outputs": [
        {
          "internalType": "address",
          "name": "sender",
          "type": "address"
        },
        {
          "internalType": "address",
          "name": "receiver",
          "type": "address"
        },
        {
          "internalType": "string",
          "name": "content",
          "type": "string"
        },
        {
          "internalType": "string",
          "name": "imageHash",
          "type": "string"
        },
        {
          "internalType": "uint256",
          "name": "timestamp",
          "type": "uint256"
        },
        {
          "internalType": "bool",
          "name": "isDeleted",
          "type": "bool"
        }
      ],
      "stateMutability": "view",
      "type": "function",
      "constant": true
    },
    {
      "inputs": [
        {
          "internalType": "address",
          "name": "",
          "type": "address"
        },
        {
          "internalType": "uint256",
          "name": "",
          "type": "uint256"
        }
      ],
      "name": "userMessages",
      "outputs": [
        {
          "internalType": "uint256",
          "name": "",
          "type": "uint256"
        }
      ],
      "stateMutability": "view",
      "type": "function",
      "constant": true
    },
    {
      "inputs": [
        {
          "internalType": "address",
          "name": "_receiver",
          "type": "address"
        },
        {
          "internalType": "string",
          "name": "_content",
          "type": "string"
        },
        {
          "internalType": "string",
          "name": "_imageHash",
          "type": "string"
        }
      ],
      "name": "sendMessage",
      "outputs": [],
      "stateMutability": "nonpayable",
      "type": "function"
    },
    {
      "inputs": [],
      "name": "getMessages",
      "outputs": [
        {
          "components": [
            {
              "internalType": "address",
              "name": "sender",
              "type": "address"
            },
            {
              "internalType": "address",
              "name": "receiver",
              "type": "address"
            },
            {
              "internalType": "string",
              "name": "content",
              "type": "string"
            },
            {
              "internalType": "string",
              "name": "imageHash",
              "type": "string"
            },
            {
              "internalType": "uint256",
              "name": "timestamp",
              "type": "uint256"
            },
            {
              "internalType": "bool",
              "name": "isDeleted",
              "type": "bool"
            }
          ],
          "internalType": "struct DecentralizedMail.Message[]",
          "name": "",
          "type": "tuple[]"
        }
      ],
      "stateMutability": "view",
      "type": "function",
      "constant": true
    },
    {
      "inputs": [
        {
          "internalType": "address",
          "name": "_user",
          "type": "address"
        }
      ],
      "name": "getUserMessages",
      "outputs": [
        {
          "internalType": "uint256[]",
          "name": "",
          "type": "uint256[]"
        }
      ],
      "stateMutability": "view",
      "type": "function",
      "constant": true
    },
    {
      "inputs": [
        {
          "internalType": "uint256",
          "name": "messageId",
          "type": "uint256"
        }
      ],
      "name": "getMessageById",
      "outputs": [
        {
          "components": [
            {
              "internalType": "address",
              "name": "sender",
              "type": "address"
            },
            {
              "internalType": "address",
              "name": "receiver",
              "type": "address"
            },
            {
              "internalType": "string",
              "name": "content",
              "type": "string"
            },
            {
              "internalType": "string",
              "name": "imageHash",
              "type": "string"
            },
            {
              "internalType": "uint256",
              "name": "timestamp",
              "type": "uint256"
            },
            {
              "internalType": "bool",
              "name": "isDeleted",
              "type": "bool"
            }
          ],
          "internalType": "struct DecentralizedMail.Message",
          "name": "",
          "type": "tuple"
        }
      ],
      "stateMutability": "view",
      "type": "function",
      "constant": true
    },
    {
      "inputs": [
        {
          "internalType": "uint256",
          "name": "messageId",
          "type": "uint256"
        }
      ],
      "name": "deleteMessage",
      "outputs": [],
      "stateMutability": "nonpayable",
      "type": "function"
    },
    {
      "inputs": [
        {
          "internalType": "address",
          "name": "_user",
          "type": "address"
        }
      ],
      "name": "getUserInbox",
      "outputs": [
        {
          "components": [
            {
              "internalType": "address",
              "name": "sender",
              "type": "address"
            },
            {
              "internalType": "address",
              "name": "receiver",
              "type": "address"
            },
            {
              "internalType": "string",
              "name": "content",
              "type": "string"
            },
            {
              "internalType": "string",
              "name": "imageHash",
              "type": "string"
            },
            {
              "internalType": "uint256",
              "name": "timestamp",
              "type": "uint256"
            },
            {
              "internalType": "bool",
              "name": "isDeleted",
              "type": "bool"
            }
          ],
          "internalType": "struct DecentralizedMail.Message[]",
          "name": "",
          "type": "tuple[]"
        }
      ],
      "stateMutability": "view",
      "type": "function",
      "constant": true
    }
  ],
  "bytecode": "0x608060405234801561001057600080fd5b50611da9806100206000396000f3fe608060405234801561001057600080fd5b50600436106100885760003560e01c80636fb6df431161005b5780636fb6df43146101405780639428cda31461015c57806398d63d3d1461018c578063b888690a146101bc57610088565b80630d80fefd1461008d57806317902601146100c25780633d9db597146100f25780635ff6cbf314610122575b600080fd5b6100a760048036038101906100a291906115b8565b6101d8565b6040516100b996959493929190611972565b60405180910390f35b6100dc60048036038101906100d791906115b8565b610381565b6040516100e99190611a65565b60405180910390f35b61010c600480360381019061010791906114d4565b61061f565b60405161011991906119e1565b60405180910390f35b61012a610b77565b60405161013791906119e1565b60405180910390f35b61015a600480360381019061015591906114fd565b610dcb565b005b6101766004803603810190610171919061157c565b611086565b6040516101839190611a87565b60405180910390f35b6101a660048036038101906101a191906114d4565b6110b7565b6040516101b39190611a03565b60405180910390f35b6101d660048036038101906101d191906115b8565b61114e565b005b600081815481106101e857600080fd5b90600052602060002090600602016000915090508060000160009054906101000a900473ffffffffffffffffffffffffffffffffffffffff16908060010160009054906101000a900473ffffffffffffffffffffffffffffffffffffffff169080600201805461025790611c2c565b80601f016020809104026020016040519081016040528092919081815260200182805461028390611c2c565b80156102d05780601f106102a5576101008083540402835291602001916102d0565b820191906000526020600020905b8154815290600101906020018083116102b357829003601f168201915b5050505050908060030180546102e590611c2c565b80601f016020809104026020016040519081016040528092919081815260200182805461031190611c2c565b801561035e5780601f106103335761010080835404028352916020019161035e565b820191906000526020600020905b81548152906001019060200180831161034157829003601f168201915b5050505050908060040154908060050160009054906101000a900460ff16905086565b61038961133b565b60008054905082106103d0576040517f08c379a00000000000000000000000000000000000000000000000000000000081526004016103c790611a25565b60405180910390fd5b6000828154811061040a577f4e487b7100000000000000000000000000000000000000000000000000000000600052603260045260246000fd5b90600052602060002090600602016040518060c00160405290816000820160009054906101000a900473ffffffffffffffffffffffffffffffffffffffff1673ffffffffffffffffffffffffffffffffffffffff1673ffffffffffffffffffffffffffffffffffffffff1681526020016001820160009054906101000a900473ffffffffffffffffffffffffffffffffffffffff1673ffffffffffffffffffffffffffffffffffffffff1673ffffffffffffffffffffffffffffffffffffffff1681526020016002820180546104df90611c2c565b80601f016020809104026020016040519081016040528092919081815260200182805461050b90611c2c565b80156105585780601f1061052d57610100808354040283529160200191610558565b820191906000526020600020905b81548152906001019060200180831161053b57829003601f168201915b5050505050815260200160038201805461057190611c2c565b80601f016020809104026020016040519081016040528092919081815260200182805461059d90611c2c565b80156105ea5780601f106105bf576101008083540402835291602001916105ea565b820191906000526020600020905b8154815290600101906020018083116105cd57829003601f168201915b50505050508152602001600482015481526020016005820160009054906101000a900460ff1615151515815250509050919050565b60606000600160008473ffffffffffffffffffffffffffffffffffffffff1673ffffffffffffffffffffffffffffffffffffffff1681526020019081526020016000208054806020026020016040519081016040528092919081815260200182805480156106ac57602002820191906000526020600020905b815481526020019060010190808311610698575b505050505090506000815167ffffffffffffffff8111156106f6577f4e487b7100000000000000000000000000000000000000000000000000000000600052604160045260246000fd5b60405190808252806020026020018201604052801561072f57816020015b61071c61133b565b8152602001906001900390816107145790505b5090506000805b8351811015610a485760008085838151811061077b577f4e487b7100000000000000000000000000000000000000000000000000000000600052603260045260246000fd5b6020026020010151815481106107ba577f4e487b7100000000000000000000000000000000000000000000000000000000600052603260045260246000fd5b906000526020600020906006020190508060050160009054906101000a900460ff16610a3457806040518060c00160405290816000820160009054906101000a900473ffffffffffffffffffffffffffffffffffffffff1673ffffffffffffffffffffffffffffffffffffffff1673ffffffffffffffffffffffffffffffffffffffff1681526020016001820160009054906101000a900473ffffffffffffffffffffffffffffffffffffffff1673ffffffffffffffffffffffffffffffffffffffff1673ffffffffffffffffffffffffffffffffffffffff1681526020016002820180546108a890611c2c565b80601f01602080910402602001604051908101604052809291908181526020018280546108d490611c2c565b80156109215780601f106108f657610100808354040283529160200191610921565b820191906000526020600020905b81548152906001019060200180831161090457829003601f168201915b5050505050815260200160038201805461093a90611c2c565b80601f016020809104026020016040519081016040528092919081815260200182805461096690611c2c565b80156109b35780601f10610988576101008083540402835291602001916109b3565b820191906000526020600020905b81548152906001019060200180831161099657829003601f168201915b50505050508152602001600482015481526020016005820160009054906101000a900460ff161515151581525050848481518110610a1a577f4e487b7100000000000000000000000000000000000000000000000000000000600052603260045260246000fd5b60200260200101819052508280610a3090611c5e565b9350505b508080610a4090611c5e565b915050610736565b5060008167ffffffffffffffff811115610a8b577f4e487b7100000000000000000000000000000000000000000000000000000000600052604160045260246000fd5b604051908082528060200260200182016040528015610ac457816020015b610ab161133b565b815260200190600190039081610aa95790505b50905060005b82811015610b6a57838181518110610b0b577f4e487b7100000000000000000000000000000000000000000000000000000000600052603260045260246000fd5b6020026020010151828281518110610b4c577f4e487b7100000000000000000000000000000000000000000000000000000000600052603260045260246000fd5b60200260200101819052508080610b6290611c5e565b915050610aca565b5080945050505050919050565b60606000805480602002602001604051908101604052809291908181526020016000905b82821015610dc257838290600052602060002090600602016040518060c00160405290816000820160009054906101000a900473ffffffffffffffffffffffffffffffffffffffff1673ffffffffffffffffffffffffffffffffffffffff1673ffffffffffffffffffffffffffffffffffffffff1681526020016001820160009054906101000a900473ffffffffffffffffffffffffffffffffffffffff1673ffffffffffffffffffffffffffffffffffffffff1673ffffffffffffffffffffffffffffffffffffffff168152602001600282018054610c7a90611c2c565b80601f0160208091040260200160405190810160405280929190818152602001828054610ca690611c2c565b8015610cf35780601f10610cc857610100808354040283529160200191610cf3565b820191906000526020600020905b815481529060010190602001808311610cd657829003601f168201915b50505050508152602001600382018054610d0c90611c2c565b80601f0160208091040260200160405190810160405280929190818152602001828054610d3890611c2c565b8015610d855780601f10610d5a57610100808354040283529160200191610d85565b820191906000526020600020905b815481529060010190602001808311610d6857829003601f168201915b50505050508152602001600482015481526020016005820160009054906101000a900460ff16151515158152505081526020019060010190610b9b565b50505050905090565b60008080549050905060006040518060c001604052803373ffffffffffffffffffffffffffffffffffffffff1681526020018673ffffffffffffffffffffffffffffffffffffffff16815260200185815260200184815260200142815260200160001515815250908060018154018082558091505060019003906000526020600020906006020160009091909190915060008201518160000160006101000a81548173ffffffffffffffffffffffffffffffffffffffff021916908373ffffffffffffffffffffffffffffffffffffffff16021790555060208201518160010160006101000a81548173ffffffffffffffffffffffffffffffffffffffff021916908373ffffffffffffffffffffffffffffffffffffffff1602179055506040820151816002019080519060200190610f0592919061139f565b506060820151816003019080519060200190610f2292919061139f565b506080820151816004015560a08201518160050160006101000a81548160ff0219169083151502179055505050600160008573ffffffffffffffffffffffffffffffffffffffff1673ffffffffffffffffffffffffffffffffffffffff168152602001908152602001600020819080600181540180825580915050600190039060005260206000200160009091909190915055600160003373ffffffffffffffffffffffffffffffffffffffff1673ffffffffffffffffffffffffffffffffffffffff1681526020019081526020016000208190806001815401808255809150506001900390600052602060002001600090919091909150558373ffffffffffffffffffffffffffffffffffffffff163373ffffffffffffffffffffffffffffffffffffffff167f8e3ce0a37f42bfb0e85f8f02c440ff2843d1182d7f1fce9174f7980e5e9d130c836040516110789190611a87565b60405180910390a350505050565b600160205281600052604060002081815481106110a257600080fd5b90600052602060002001600091509150505481565b6060600160008373ffffffffffffffffffffffffffffffffffffffff1673ffffffffffffffffffffffffffffffffffffffff16815260200190815260200160002080548060200260200160405190810160405280929190818152602001828054801561114257602002820191906000526020600020905b81548152602001906001019080831161112e575b50505050509050919050565b6000805490508110611195576040517f08c379a000000000000000000000000000000000000000000000000000000000815260040161118c90611a25565b60405180910390fd5b60008082815481106111d0577f4e487b7100000000000000000000000000000000000000000000000000000000600052603260045260246000fd5b906000526020600020906006020190503373ffffffffffffffffffffffffffffffffffffffff168160010160009054906101000a900473ffffffffffffffffffffffffffffffffffffffff1673ffffffffffffffffffffffffffffffffffffffff16148061128d57503373ffffffffffffffffffffffffffffffffffffffff168160000160009054906101000a900473ffffffffffffffffffffffffffffffffffffffff1673ffffffffffffffffffffffffffffffffffffffff16145b6112cc576040517f08c379a00000000000000000000000000000000000000000000000000000000081526004016112c390611a45565b60405180910390fd5b60018160050160006101000a81548160ff0219169083151502179055503373ffffffffffffffffffffffffffffffffffffffff167f636bbf15c0522de78e45a4607aa8708931f7d74979e04f9522da0f86d70093ad8360405161132f9190611a87565b60405180910390a25050565b6040518060c00160405280600073ffffffffffffffffffffffffffffffffffffffff168152602001600073ffffffffffffffffffffffffffffffffffffffff1681526020016060815260200160608152602001600081526020016000151581525090565b8280546113ab90611c2c565b90600052602060002090601f0160209004810192826113cd5760008555611414565b82601f106113e657805160ff1916838001178555611414565b82800160010185558215611414579182015b828111156114135782518255916020019190600101906113f8565b5b5090506114219190611425565b5090565b5b8082111561143e576000816000905550600101611426565b5090565b600061145561145084611ad3565b611aa2565b90508281526020810184848401111561146d57600080fd5b611478848285611bea565b509392505050565b60008135905061148f81611d45565b92915050565b600082601f8301126114a657600080fd5b81356114b6848260208601611442565b91505092915050565b6000813590506114ce81611d5c565b92915050565b6000602082840312156114e657600080fd5b60006114f484828501611480565b91505092915050565b60008060006060848603121561151257600080fd5b600061152086828701611480565b935050602084013567ffffffffffffffff81111561153d57600080fd5b61154986828701611495565b925050604084013567ffffffffffffffff81111561156657600080fd5b61157286828701611495565b9150509250925092565b6000806040838503121561158f57600080fd5b600061159d85828601611480565b92505060206115ae858286016114bf565b9150509250929050565b6000602082840312156115ca57600080fd5b60006115d8848285016114bf565b91505092915050565b60006115ed8383611834565b905092915050565b60006116018383611954565b60208301905092915050565b61161681611ba2565b82525050565b61162581611ba2565b82525050565b600061163682611b23565b6116408185611b5e565b93508360208202850161165285611b03565b8060005b8581101561168e578484038952815161166f85826115e1565b945061167a83611b44565b925060208a01995050600181019050611656565b50829750879550505050505092915050565b60006116ab82611b2e565b6116b58185611b6f565b93506116c083611b13565b8060005b838110156116f15781516116d888826115f5565b97506116e383611b51565b9250506001810190506116c4565b5085935050505092915050565b61170781611bb4565b82525050565b61171681611bb4565b82525050565b600061172782611b39565b6117318185611b80565b9350611741818560208601611bf9565b61174a81611d34565b840191505092915050565b600061176082611b39565b61176a8185611b91565b935061177a818560208601611bf9565b61178381611d34565b840191505092915050565b600061179b601683611b91565b91507f4d65737361676520646f6573206e6f74206578697374000000000000000000006000830152602082019050919050565b60006117db602583611b91565b91507f4e6f7420617574686f72697a656420746f2064656c6574652074686973206d6560008301527f73736167650000000000000000000000000000000000000000000000000000006020830152604082019050919050565b600060c08301600083015161184c600086018261160d565b50602083015161185f602086018261160d565b5060408301518482036040860152611877828261171c565b91505060608301518482036060860152611891828261171c565b91505060808301516118a66080860182611954565b5060a08301516118b960a08601826116fe565b508091505092915050565b600060c0830160008301516118dc600086018261160d565b5060208301516118ef602086018261160d565b5060408301518482036040860152611907828261171c565b91505060608301518482036060860152611921828261171c565b91505060808301516119366080860182611954565b5060a083015161194960a08601826116fe565b508091505092915050565b61195d81611be0565b82525050565b61196c81611be0565b82525050565b600060c082019050611987600083018961161c565b611994602083018861161c565b81810360408301526119a68187611755565b905081810360608301526119ba8186611755565b90506119c96080830185611963565b6119d660a083018461170d565b979650505050505050565b600060208201905081810360008301526119fb818461162b565b905092915050565b60006020820190508181036000830152611a1d81846116a0565b905092915050565b60006020820190508181036000830152611a3e8161178e565b9050919050565b60006020820190508181036000830152611a5e816117ce565b9050919050565b60006020820190508181036000830152611a7f81846118c4565b905092915050565b6000602082019050611a9c6000830184611963565b92915050565b6000604051905081810181811067ffffffffffffffff82111715611ac957611ac8611d05565b5b8060405250919050565b600067ffffffffffffffff821115611aee57611aed611d05565b5b601f19601f8301169050602081019050919050565b6000819050602082019050919050565b6000819050602082019050919050565b600081519050919050565b600081519050919050565b600081519050919050565b6000602082019050919050565b6000602082019050919050565b600082825260208201905092915050565b600082825260208201905092915050565b600082825260208201905092915050565b600082825260208201905092915050565b6000611bad82611bc0565b9050919050565b60008115159050919050565b600073ffffffffffffffffffffffffffffffffffffffff82169050919050565b6000819050919050565b82818337600083830152505050565b60005b83811015611c17578082015181840152602081019050611bfc565b83811115611c26576000848401525b50505050565b60006002820490506001821680611c4457607f821691505b60208210811415611c5857611c57611cd6565b5b50919050565b6000611c6982611be0565b91507fffffffffffffffffffffffffffffffffffffffffffffffffffffffffffffffff821415611c9c57611c9b611ca7565b5b600182019050919050565b7f4e487b7100000000000000000000000000000000000000000000000000000000600052601160045260246000fd5b7f4e487b7100000000000000000000000000000000000000000000000000000000600052602260045260246000fd5b7f4e487b7100000000000000000000000000000000000000000000000000000000600052604160045260246000fd5b6000601f19601f8301169050919050565b611d4e81611ba2565b8114611d5957600080fd5b50565b611d6581611be0565b8114611d7057600080fd5b5056fea26469706673582212207c5a892c99cd9b80b583216f60af78bec89d407508e5eeef17c91752932666bd64736f6c63430008000033",
  "immutableReferences": {},
  "source": "// SPDX-License-Identifier: MIT\npragma solidity ^0.8.0;\n\ncontract DecentralizedMail {\n    struct Message {\n        address sender;\n        address receiver;\n        string content; // IPFS hash or plain text\n        string imageHash; // IPFS hash of the image\n        uint256 timestamp;\n        bool isDeleted; // Flag to mark message as deleted\n    }\n\n    Message[] public messages;\n    mapping(address => uint256[]) public userMessages;\n\n    event MessageSent(address indexed sender, address indexed receiver, uint256 messageId);\n    event MessageDeleted(address indexed user, uint256 messageId);\n\n    function sendMessage(address _receiver, string memory _content, string memory _imageHash) public {\n        uint256 messageId = messages.length;\n        messages.push(Message({\n            sender: msg.sender,\n            receiver: _receiver,\n            content: _content,\n            imageHash: _imageHash,\n            timestamp: block.timestamp,\n            isDeleted: false\n        }));\n        userMessages[_receiver].push(messageId);\n        userMessages[msg.sender].push(messageId); // Add message to sender's message list\n        emit MessageSent(msg.sender, _receiver, messageId);\n    }\n\n    function getMessages() public view returns (Message[] memory) {\n        return messages;\n    }\n\n    function getUserMessages(address _user) public view returns (uint256[] memory) {\n        return userMessages[_user];\n    }\n\n    function getMessageById(uint256 messageId) public view returns (Message memory) {\n        require(messageId < messages.length, \"Message does not exist\");\n        return messages[messageId];\n    }\n\n    function deleteMessage(uint256 messageId) public {\n        require(messageId < messages.length, \"Message does not exist\");\n        Message storage message = messages[messageId];\n        require(message.receiver == msg.sender || message.sender == msg.sender, \"Not authorized to delete this message\");\n        message.isDeleted = true;\n        emit MessageDeleted(msg.sender, messageId);\n    }\n\n    function getUserInbox(address _user) public view returns (Message[] memory) {\n        uint256[] memory messageIds = userMessages[_user];\n        Message[] memory inbox = new Message[](messageIds.length);\n        uint256 counter = 0;\n\n        for (uint256 i = 0; i < messageIds.length; i++) {\n            Message storage message = messages[messageIds[i]];\n            if (!message.isDeleted) {\n                inbox[counter] = message;\n                counter++;\n            }\n        }\n\n        // Resize the array to fit the number of non-deleted messages\n        Message[] memory resizedInbox = new Message[](counter);\n        for (uint256 j = 0; j < counter; j++) {\n            resizedInbox[j] = inbox[j];\n        }\n\n        return resizedInbox;\n    }\n}\n",
  "sourcePath": "C:\\Users\\bhija\\Downloads\\decentralized-mail\\contracts\\DecentralizedMail.sol",
  "compiler": {
    "name": "solc",
    "version": "0.8.0+commit.c7dfd78e.Emscripten.clang"
  },
  "schemaVersion": "3.4.16",
  "updatedAt": "2024-07-29T03:51:43.341Z",
  "networkType": "ethereum",
  "devdoc": {
    "kind": "dev",
    "methods": {},
    "version": 1
  },
  "userdoc": {
    "kind": "user",
    "methods": {},
    "version": 1
  }
}